:200000000C94440D0C946C0D0C946C0D0C946C0D0C946C0D0C946C0D0C946C0D0C946C0D40
:200020000C946C0D0C9493130C946C0D0C94E2100C946C0D0C946C0D0C946C0D0C946C0D52
:200040000C946C0D0C946C0D0C946C0D0C946C0D0C946C0D0C946C0D0C946C0D0C946C0DD8
:200060000C94DC0D0C946C0DC09060484030242018100C0806040302016010691071107A02
:20008000108010891091109A10A010A810B110BA10C310CC10D210DA10E310EC10F210F885
:2000A00010011108111011191122112B1133113C1143114A11511158115F1166116D117467
:2000C000117B11821189118F1194119A11A011A411A811AC11B011B411B911BD11C211C6D3
:2000E00011C911CC11D011D411D811DC11E011B911E411E811EC11F011F411F811FC1100DA
:2001000012041208120C121012141218121C122012241228122C123012341238123C12409F
:2001200012441248124C125012541258125C126012641268126C127012741278127C12F00F
:200140001144128012841288128C1290129412981280129C12A012A312A7129412AB12AF74
:2001600012B312B712BB12BF12C312C712CB12CF12D312D712DB12E012E512E912ED12F146
:2001800012F512F912FD120113051309130D131113151319131D132113251329132D133103
:2001A00013351339133D13411345134A134E135213941256135A135E13621366136A136EB3
:2001C00013721376137A137E13E912821386138A138E13921396139A139E13A213A613AAB5
:2001E00013AE13B213B613BA13BE13C213C613CA13CB13CF13D113D313D513D713DB13DF4B
:2002000013E313E713EB13EF13F313F713FB13FF13031407140B140F14131417141B141F97
:2002200014231427142B142F14331437143B143F14431447144B144F14531457145B145F6E
:2002400014631467146B146F1473144412AF12771490127B147F148214851488148B1455EA
:2002600055F5F5B5B5D5D555AB55599595090949924952494919D56B6B5B5B7777B76D5756
:20028000576F6FDF7611A9C16F01D100001149111149490105010149520501412941044171
:2002A000A44141000092401010101250109090901210120C49104010481090000049491180
:2002C000115C5C555544441F5F4545D5D577774264FFFF000048480155004910F084A44840
:2002E000101141491455555858A5627F007F0081FF81FF7F007F0081FF81FF7F007F008163
:20030000FF81FF7F007F0081FF81FF7F0081FF7F0081FF7F0081FF7F0081FF7F0081FF7FE6
:200320000081FF7F0081FF7F0081FFC1FFC1FF7F00000081FF000000005800000000005810
:2003400000CEFFA8FF00005800000013002C005D00FCFF2000CBFFA6FF81FF750020009AFC
:20036000FFCBFF6900CBFF5D00CBFF58009BFF6B00A1FF5800A8FF3200DAFF4100A8FF6506
:2003800000A1FF650081FF3F00E1FF4600ACFF540090FF54009EFF70009EFF3600BAFF7F79
:2003A00000ACFF7F0090FF5400ACFF00000100030007000F003F007F00FF00FF03FF0FFF9F
:2003C0003FFFFF00000100030007000F003F007F00FF00FF03FF0FFF3FFFFF0000010003B9
:2003E0000007000F003F007F00FF00FF03FF0FFF3FFFFF00000100050007000F003F007F04
:2004000000FF00FF03FF0FFF3FFFFF0000010005000D000F003F007F00FF00FF03FF0FFFA3
:200420003FFFFF00000100090015002D003F007F00FF00FF03FF0FFF3FFFFF000001001118
:200440000029002D007D007F00FF00FF03FF0FFF3FFFFF00000100110029005500DD00FD95
:2004600000FF00FF03FF0FFF3FFFFF00000100210091002901AD01DD02BD03FF03FF0FFFF8
:200480003FFFFF000001004100110149025505AD066D0B7D0FFF0FFF3FFFFF0000010081A3
:2004A0000021029108A9145515AD16DD2EFD3EFF3FFFFF000001000101410811112929A9AB
:2004C000525555ADADDDDDFDFDFFFF00000100020003000400050006000700080009000ADD
:2004E000000B00000000000200020004000500050007000700090009000B000000000002B2
:200500000003000300050005000700070009000A000A00000001000100030003000500058E
:20052000000700080008000A000A000000000002000200040004000600070007000900095E
:20054000000B0000000000020002000400050005000700070009000A000A00000000000251
:200560000003000300050005000700080008000A000A00000001000100030003000500062D
:20058000000600080008000A000A0000000000030003000400040007000700070009000AFB
:2005A000000A000000000003000300030005000600070007000A000A000A000000000002EF
:2005C0000002000400040007000700070009000900090000000000030003000300050005CE
:2005E00000070007000A000A000A0000000100010004000400050005000700080008000B99
:20060000000B0000000100010004000400040006000700080008000B000B0000000100018C
:20062000000300030005000500070007000A000A000B000000010001000300030006000669
:20064000000700080008000B000B0000000000020002000400050005000500090009000A3A
:20066000000B00000000000200020005000500050007000700090009000900000000000330
:200680000003000300050005000800080008000A000A00000000000300030004000400060A
:2006A000000600080008000A000A0000000100010003000400050005000700080008000ADC
:2006C000000A000000010001000100050005000500070008000800080008000000010001D5
:2006E0000003000300030007000700080008000800080000000000020002000400040006B1
:20070000000600080008000A000A00AA00E3005501C701AA028E03000455051C070008AA94
:200720000A001055150020AA2A004055550080FFFF5F028B02EB020B032B034B036B038B7B
:2007400003AB03CB04E304FB0413052B0543055B0573058B05A305BB05D305EB0503061BE7
:200760000633064B06FB0463067B069306AB06C306DB06F3060B071010101609090906108A
:2007800010101602020207101010160902040F101010160102010610101012040A0F0210F1
:2007A00010101704060106101010130407050702030302020E1E0C0000001C1414170000F8
:2007C0000103070F1F1F0000000E1511110E000105090D1115191D2125292C3034383C4043
:2007E00044484C5054585C6064686C7074787C8083878B8F93979B9FA3A7ABAFB3B7BBBFC9
:20080000C3C7CBCFD3D6DADEE2E6EAEEF2F6FAFEFAF6F2EEEAE6E2DEDAD6D3CFCBC7C3BF0D
:20082000BBB7B3AFABA7A39F9B97938F8B8783807C7874706C6864605C5854504C48444007
:200840003C3834302C2925211D1915110D090501FEFEFEFEFEFEFEFEFEFEFEFEFEFEFEFECD
:20086000FEFEFEFEFEFEFEFEFEFEFEFEFEFEFEFEFEFEFEFEFEFEFEFEFEFEFEFEFEFEFEFEB8
:20088000FEFEFEFEFEFEFEFEFEFEFEFEFEFEFEFE0101010101010101010101010101010168
:2008A000010101010101010101010101010101010101010101010101010101010101010118
:2008C00001010101010101010101010101010101FE01030507090B0D0F11131517191B1D29
:2008E0001F21232527292B2D2F31333537393B3D3F41434547494B4D4F51535557595B5D38
:200900005F61636567696B6D6F71737577797B7D7F80828486888A8C8E90929496989A9C26
:200920009EA0A2A4A6A8AAACAEB0B2B4B6B8BABCBEC0C2C4C6C8CACCCED0D2D4D6D8DADC17
:20094000DEE0E2E4E6E8EAECEEF0F2F4F6F8FAFCFE0180868C92989EA4AAB0B6BBC1C6CBAD
:20096000D0D4D9DDE1E5E9ECEFF2F4F7F9FAFCFDFDFEFEFEFDFDFCFAF9F7F4F2EFECE9E564
:20098000E1DDD9D4D0CBC6C1BBB6B0AAA49E98928C868079736D67615B554F49443E3934A9
:2009A0002F2B26221E1A1613100D0B0806050302020101010202030506080B0D1013161A6A
:2009C0001E22262B2F34393E44494F555B61676D737980808A949DA7B1BAC2CBD2DAE0E633
:2009E000ECF1F5F8FBFCFEFEFEFDFBF9F6F3EFEAE6E0DBD5CFC9C3BDB6B0AAA49F99948FEC
:200A00008B8783807D7B797877767676767778797B7C7E80818384868788898989898887DC
:200A20008684827F7C7874706B66605B554F49423C36302A241F1915100C090604020101A8
:200A4000010304070A0E13191F252D343D454E58626B7580808F9EACBAC7D3DEE7EFF5FA64
:200A6000FDFEFEFCF9F4EFE8E1D9D1C9C2BAB3ADA8A3A09E9E9EA0A3A8ADB3BAC2C9D1D98E
:200A8000E1E8EFF4F9FCFEFEFDFAF5EFE7DED3C7BAAC9E8F8070615345382C2118100A0547
:200AA00002010103060B10171E262E363D454C52575C5F6161615F5C57524C453D362E263E
:200AC0001E17100B0603010102050A1018212C38455361708080909FADB9C3C9CCCCC9C44E
:200AE000BCB3A9A0978F8A87878A9099A4B0BECCD9E5F0F7FCFEFCF7F0E5D9CCBEB0A49938
:200B0000908A87878A8F97A0A9B3BCC4C9CCCCC9C3B9AD9F90806F6052463C363333363BCF
:200B2000434C565F6870757878756F665B4F4133261A0F08030103080F1A2633414F5B6693
:200B40006F7578787570685F564C433B363333363C4652606F800101010305080D131B258D
:200B6000313E4D5D6E8091A3B4C4D3E0EBF3FAFDFEFCF8F1E7DCCEBFB09F8E7D6C5C4C3E5B
:200B800031251B130C06020101010101010101010101010101010101010102020303040597
:200BA0000607070605030101010101010101010101010101010101010101010101010101F9
:200BC00001010101010101010101010101010101010101010101010101020509111B293A5D
:200BE0004D637A92A9BFD3E4F1FAFEFEF9F0E3D4C4B2A192857B7472747B8592A1B2C4D413
:200C0000E3F0F9FEFEFAF1E4D3BFA9927A634D3A291B11090502010101010101010101019D
:200C2000010101010101010101010101010101010101010101010101010101010101010194
:200C40000101010101010101010101010101010101010101010101013F39332D27211B152C
:200C60000F090301070D13191F252B31373D43494F555B61676D737980868C92989EA4AAB0
:200C8000B0B6BCC2C8CED4DAE0E6ECF2F8FEFCF6F0EAE4DED8D2CCC6C0C6CCD2D8DEE4EA20
:200CA000F0F6FCFEF8F2ECE6E0DAD4CEC8C2BCB6B0AAA49E98928C868079736D67615B5517
:200CC0004F49433D37312B251F19130D070103090F151B21272D33393F80787068605850A1
:200CE0004840383029211911090109111921293038404850586068707880878F979FA7AF9F
:200D0000B7BFC7CFD6DEE6EEF6FEF6EEE6DED6CFC7BFB7AFA79F978F8780878F979FA7AFFD
:200D2000B7BFC7CFD6DEE6EEF6FEF6EEE6DED6CFC7BFB7AFA79F978F878078706860585027
:200D40004840383029211911090109111921293038404850586068707880010203030405CE
:200D6000060708090A0B0C0E0F1012131517181A1C1E20222426292B2E3134373A3D4044A5
:200D8000484C5054585D62676C71777D838A91989FA7AFB7C0C9D3DDE8F3FEF3E8DDD3C984
:200DA000C0B7AFA79F98918A837D77716C67625D5854504C4844403D3A3734312E2B2926CB
:200DC0002422201E1C1A1817151312100F0E0C0B0A09080706050403030201010C16202906
:200DE00030383E444A4F54585C606366696C6E7072747677787A7B7C7D7E7F8080818283D0
:200E000084858788898B8D8F919396999C9FA3A7ABB0B5BBC1C7CFD6DFE9F3FEF3E9DFD670
:200E2000CFC7C1BBB5B0ABA7A39F9C999693918F8D8B898887858483828180807F7E7D7CF4
:200E40007B7A7877767472706E6C696663605C58544F4A443E38302920160C01E5CDB8A471
:200E6000938274665A4F453C332C26201A16120E0B09070504020201010101020203040528
:200E80000608090B0D0E10121416191B1D1F222427292C2E313336393B3E414446494C4F6E
:200EA0005254575A5D606366686B6E7174777A7D808285888B8E9194979A9DA0A3A6A9AB69
:200EC000AEB1B4B7BABDC0C3C6C9CCCFD2D5D8DBDEE1E3E6E9ECEFF2F5F8FBFEE514263651
:200EE0004553606C77828B949CA3AAB1B7BCC1C6CACED2D5D9DCDEE1E3E5E7E9EBECEEEFE3
:200F0000F0F2F3F4F5F5F6F7F8F8F9F9FAFAFBFBFBFCFCFCFDFDFDFDFDFEFEFEFEEBD9C900
:200F2000BAAC9F93887D746B635C554E48433E3935312D2A2623211E1C1A181614131110E0
:200F40000F0D0C0B0A0A090807070606050504040403030302020202020101010114FEE6FA
:200F6000BD8B582D0F0102112946637C8E989994897B6E625B58595E666F7981878B8C8BAA
:200F80008986838180808183878A8E919496979898989999999A9C9D9FA1A3A5A7A8AAABB7
:200FA000ACADAEAFB0B1B3B4B6B7B9BABCBDBEC0C1C2C3C5C6C7C8CACBCDCECFD1D2D3D532
:200FC000D6D7D9DADBDDDEDFE1E2E3E5E6E7E9EAEBEDEEEFF1F2F3F5F6F7F9FAFBFDFE4378
:200FE000557398BDDDF3FEFEF4E4D0BDACA09A9A9FA8B2BDC6CCCFCFCDC8C2BDB8B5B3B356
:20100000B4B7BABDBFC1C2C2C1C0BEBDBBBABABABABBBCBDBEBEBEBEBEBEBDBDBCBCBCBC39
:20102000AA8C6742220C01010B1B2F42535F656560574D423933303032373D42474A4C4C6B
:201040004B484542403E3D3D3E3F4142444545454544434241414141414142424343434347
:2010600073796E636C74636800706F6C7973657100617270656767696F006C6174636800A1
:2010800062706D20636E7472006363206B6E6F620063686F72646D656D00636C6F636B004F
:2010A000646976696465720063686E66696C74720063686E6D65726772007573657220704A
:2010C0007267006469737061746368006472756D73006D6F6E69746F720072616E646F6D33
:2010E000697A0073706C69747465720064656C6179007363616C650073657175656E637219
:20110000006363206C666F0074616E707572610073657474696E6773006E6F74656E756B38
:2011200065007379737864756D70002172657365742100A52076312E3420A500736E644F31
:20114000666600727374437472006C636C437472006E6F744F6666006F6D6E4F6666006F9D
:201160006D6E694F6E006D6F6E6F4F6E00706F6C794F6E00737973782E2E002E737973783F
:201180002E002E2E737973780073746172740073746F7000636F6E742E00726573657400F5
:2011A00063686E0063636300636C6300636C6E00616C6C00726573740074696500657869DF
:2011C00074006F6666006F6E006E6F0079657300784645006C657400666C7400726563008D
:2011E0006475620072756E0062706D0067727600616D7400746170007377670073686600B8
:20120000707368006C61670068756D006D6E6B0076616C006E756D007479700063632300E6
:201220006E7270006D696E006D6178006D6F640070746E006C656E0065756300696E74007B
:20124000657874006E6F7400636C6B00707431007074320070743300707434006363310061
:20126000636332006363330063633400696E70006F75740073706C006C6F770075707000EE
:2012800076656C00236331002363320063796300706F6C00726E640073746B006469720039
:2012A00075700064776E0075266400706C6100636864006F637400647572006C617400645F
:2012C00069760064656E0063683E0063683C006E6F3E006E6F3C0076653E0076653C3C0048
:2012E0006F66666900676C6F006C6F6300342F3100332F3100322F3100332F3200312F31EC
:2013000000332F3400322F3300312F3200332F3800312F3300312F3400312F3600312F3822
:20132000002F3132002F3136002F3234002F3332002F3438002F3936007265700074727383
:201340000064706C006F66665F006D697200616C740074726B00726F6F0073636C00766F62
:20136000690068726D0063687200696F6E00646F7200706872006C7964006D69780061654E
:201380006F00626D6A00626D6E00706D6A00706D6E00626872007368720072757000746F13
:2013A0006400726167006B6161006D6567006D6C6B0064706B00666C6B006A617000676166
:2013C0006D0077686C006B65790000737470000100020003000400616D3100616D3200614B
:2013E0006D3300616D340063653100636532006365330063653400776631007766320077CD
:20140000663300776634007274310072743200727433007274340073793100737932007312
:20142000793300737934007472690073717200726D700073696E0073693200736933007312
:201440006935006767310067673200627431006274320073703100737032006C7031006C3E
:2014600070320072733100727332007326680072657300667265006D6F6E0063686F007021
:2014800061006D61006E690073610070726700F0002102000320434462204445622045207A
:2014A000464762204741622041426220420020434323204444232045204646232047472333
:2014C000204141232042002D30313233343536373800061F000000000000000000000000BF
:2014E0000000000000000000000000000000B71F0000101F5D1F00002B1F00000000000021
:201500000100F0033205000000016F220522D121000000008220000000000000C121DF1F73
:20152000BA1FCC2000000000582200000000000000009620000000000C00D0003505421549
:2015400002000078000000000100100C0E005F230000000000000000000000000000000064
:201560000000000000000000000000005C230000000000000000EF22D122000006001800CA
:201580004B05861505013F000007007F4C240024E123C22300000000000000000000000018
:2015A00000000000000000000000412400003624000000000000000000000C00900051057A
:2015C000C415060100043C3F4346303030303030922400000000000000000000000000004D
:2015E000000000000000000000000000532400000000000000000000000000000000020072
:2016000040025D05081608010100902500000000000000000000000000000000EA24D8243F
:20162000D524E7240000F0240000AE242425000000000125A52400000400100062054216B5
:20164000070100780000F725000000000000000000000000000000000000000000000000EE
:2016600000000000BD2500000000000000000000000000000300C0006B057E160A010003B3
:201680000061271C270027000000000000000000000000ED2612260A261A26000000003B62
:2016A0002700000000000000002126000000000A0000016F05C91611001F3C5770869BAE5C
:2016C000BFCEDBE6EFF6FBFDFF007800000008040A0000F22852283B282E28000000000005
:2016E0000000000000000000000000000000000000BE280000000000000000000000000004
:20170000000500B0007A050B170C0100000003014D2B862A6D2A00000000000000000000A3
:2017200000005D2A1F2917296729000000003F2B00000000000000003529000000000A0038
:201740004000810554170D0100010203040506080A0C0E1000007800000924282A38BB2BE4
:2017600000000000000000000000000000000000000000000000000000000000A62B000098
:2017800000000000000000000000000010002002AC059617090101000000000000000000AE
:2017A000000000000000D32D00000000000000000000000000000000000000000000000029
:2017C00000000000472C0000000000000000C22D0000000001004402FC05DE170B01003D21
:2017E0002F6E2EDF2D000000000000000000000000000000000000000000000000342F00AF
:2018000000000000000000362E000000000800F000FD051718030100000000007F007F46F3
:2018200031A230893000000000000000000000000079305D30812F72300000000020310013
:2018400000000000000000D530000000001F00000209065718140100007800001000073F01
:201860003F0002000A003F0004004A003F00020047003F0004000A33D73206330033B4322D
:2018800091326E3249323A32E431353230322B32B231183200000000DE310000C83100008E
:2018A00000000000010000003A06AE180E01005134AA33A133983300000000000000000011
:2018C0000000000000000000000000000046340000000000000000000000000000080088FE
:2018E000003C06E7180F01007F0C200000070A3B360636F335EB35000000000000000000E6
:20190000000000000000000000000000002936000000000000000000000000000006001052
:201920000144062719120100000100F4006736000000000000000000000000000000000077
:201940000000000000000000006436000000000000000000000000000000000500F4034EA3
:201960000665191600000010540C75393538103800000000B3360000D93600000038D737BC
:20198000D037F937000000006739B2388F380000CB381D3900000000870020015306A219AA
:2019A00013010000007800000C000830FF30FF3CFF3CFF00FB39000000000000000000007F
:2019C000000000000000000000000000000000000000BA3900000000000000000000000014
:2019E000000004008000E106EC19100100300001CE3A00000000000000000000000000002D
:201A00000000913A143A00001C3A0000CB3A000000001F3A0000343A000000000000020089
:201A20000A00E506281A00010408E83BF13A00000000000000000000000000008E3B873B89
:201A4000E93AB73B00000000E53B0000000000000000BE3B0000000008003000EA066E1AA8
:201A600015010500000000010102FBF9FF0000007808003C0005050EFE0E0510D410621108
:201A8000F4146015991AF71E11241FBECFEFD8E0DEBFCDBF11E0A0E0B1E0ECEBFAE702C0D4
:201AA00005900D92A033B107D9F718E0A0E3B1E001C01D92A238B107E1F71AE1C8E8DAE14B
:201AC00004C02297FE010E94583DC637D107C9F70E94F9110C943F3C0C9400000F931F9303
:201AE000CF93DF938C01EB0160E070E0AE010E945A3C009719F0EC01C01BD10BCE01DF919F
:201B0000CF911F910F9108951F93CF93DF93EC01162F70E00E946E0D982F06C0FE01E90FCF
:201B2000F11D80E280839F5F9117C0F3DF91CF911F910895EF92FF920F931F93CF93DF9382
:201B4000EC01F62EE42E062F10E0B8010E946E0D282F8F15D1F0DE01A00FB11F1297E82F8D
:201B6000F0E03197EC0FFD1F90E00DC0921728F4808111968C93119703C01196EC921197B5
:201B80009F5F119731979F1588F3CDB7DEB7E6E00C94473D40E20E949A0D08958FB7F894CB
:201BA000209130013091310140913201509133018FBFB901CA0108951F920F920FB60F920F
:201BC00011242F933F934F935F936F937F938F939F93AF93BF93EF93FF93E0913501F09130
:201BE0003601309709F00995FF91EF91BF91AF919F918F917F916F915F914F913F912F91F0
:201C00000F900FBE0F901F9018950895982F2B9A8091C00085FFFCCF9093C6000895382F27
:201C20002091F50619C080916F0190917001891B8F77C9F380917001E82FF0E0EA50F94FBB
:201C4000E0818F5F8F77809370018091C00085FFFCCFE093C60022E28091700190916F013B
:201C60008150891B8F778317F0F22093F506089586E1089520914F06222309F444C060353D
:201C800008F441C030E090E001962817390709F03AC0262F30E08091650190916601805B7F
:201CA0009F4F2817390778F5962F90552091E1048091E404E92F01C0E81BE21720F02223E7
:201CC00011F08823C9F7F0E0EE0FFF1FEE0FFF1FEF5DFB4F828123812F5F281B440F249F6E
:201CE000612D1124680FE0915F01F0916001309719F0892F09950895E0916901F0916A016D
:201D0000E90FF11D608308950F931F93382F2091510670E06F5F7F4F8091500690E0681738
:201D2000790701F54217F1F43323D1F0E0915206F0E0E859FF4F0491E0914B01F0914C0190
:201D4000309709F0099510E009C0E0914901F0914A01309711F082E009951F5F1017A8F3DD
:201D600081E001C080E01F910F910895282F8091700190916F018150891B8F77C1F380914A
:201D80006F01E82FF0E0EA50F94F20838F5F8F7780936F0108950F931F93CF93DF93182F44
:201DA000EB01042F842F8F5F0E940F0E812F0E94B60E002341F088810E94B60E013019F091
:201DC00089810E94B60EDF91CF911F910F910895FF920F931F93182F062FF42E83E00E944E
:201DE0000F0E812F0E94B60E802F0E94B60E8F2D0E94B60E1F910F91FF90089508951F93AE
:201E0000CF93DF93182FE091660325C0CE2FD0E0FE01EE0FFF1FEE0FFF1FEC0FFD1FEC55AE
:201E2000FE4F82818823C9F460816E3F51F04181442319F4812F806802C0812F80690E9450
:201E4000E80EFE01EE0FFF1FEE0FFF1FEC0FFD1FEC55FE4FE381EE23C9F60E940610DF9156
:201E6000CF911F9108951F93182F03C0812F0E94FF0E8091A3018823C9F71F9108950E948B
:201E800064100895E82FF0E0EE0FFF1FED5FFE4F6081718187E391E048E350E00E94423C6D
:201EA00008952091670130916801E0916901F0916A01E80FF91F820F931F60810E94903CDA
:201EC0000895609167017091680140916501509166018091690190916A010E946E3C089533
:201EE0000E94610FE0915701F0915801309711F080E00995E0913701F0913801309709F044
:201F000009950895609167017091680140916501509166018091690190916A010E94863CD9
:201F2000089560916B0170916C0140916501509166018091690190916A010E94423C0E94F1
:201F4000820F0895A0E0B0E0E8EAFFE00C94213DC62ED42EE22EA0E0B0E0BC01CD012AE0E9
:201F600030E040E050E00E949E3C9B01AC012C0D311D411D511D64E975E387E790E00E94C4
:201F8000FD3C49015A01089481089108A108B10882E0D80ECD2CDD24CC0CDD1CE1E3F7E095
:201FA000CE0EDF1EFF2400E010E0C501B401A80197010E949E3C2B013C01C0E0D0E0F6016D
:201FC000259134912C0F3D1FF90165917491882777FD8095982F8E010A581E4FA301920166
:201FE0000E949E3CBC01992777FD9095892F680D791DF801718360832296C032D105F9F64D
:20200000CDB7DEB7E0E10C943D3D08953091A3012091660304C08FEF80832381392F822FAE
:2020200090E0FC01EE0FFF1FEE0FFF1FE80FF91FEC55FE4F8281882329F03093A30120937F
:20204000660318C0932F9150222329F73093A301109266030895822F90E0FC01EE0FFF1FEF
:20206000EE0FFF1FE80FF91FEC55FE4F8281815082832381222379F70895482FE091660388
:2020800090E01EC02E2F30E0F901EE0FFF1FEE0FFF1FE20FF31FEC55FE4F8081841731F403
:2020A0008181861719F48EEF80839F5FF901EE0FFF1FEE0FFF1FE20FF31FEC55FE4FE381D1
:2020C000EE2301F7892F0895982FE9EAF1E071E080818F3F29F07F5F35967A35C9F7089549
:2020E0008091A3018F5F8093A301A72FB0E0FD01EE0FFF1FEE0FFF1FEA0FFB1FEC55FE4F4B
:20210000908361834283248350916603552371F0852F90E0FC01EE0FFF1FEE0FFF1FE80FEB
:20212000F91FEC55FE4F8281481768F4FD01EE0FFF1FEE0FFF1FEA0FFB1FEC55FE4F538390
:20214000709366030895252F30E0F901EE0FFF1FEE0FFF1FE20FF31FEC55FE4F5381552305
:2021600071F0852F90E0FC01EE0FFF1FEE0FFF1FE80FF91FEC55FE4F8281481720F7FD0193
:20218000EE0FFF1FEE0FFF1FEA0FFB1FEC55FE4F5383F901EE0FFF1FEE0FFF1FE20FF31F5F
:2021A000EC55FE4F73830895089584EA91E06FEF70E042EC51E00E94673C10926603109283
:2021C000A30108951F920F920FB60F9211242F933F934F935F936F937F938F939F93AF93BF
:2021E000BF93EF93FF9380919601909197010196A0E0B0E0209172013091730140917401D2
:2022000050917501280F391F4A1F5B1F20937201309373014093740150937501809198014D
:202220008F5F809398018630C1F410929801809199018F5F80939901803111F41092990126
:20224000E0919901F0E0EE0FFF1FEA58FE4F808191819093970180939601809196019091B8
:20226000970190938900809388009695879590938B0080938A0080917101882391F080912D
:202280006E01882349F0E0914901F0914A01309741F080E0099505C080916D038F5F809327
:2022A0006D03FF91EF91BF91AF919F918F917F916F915F914F913F912F910F900FBE0F9043
:2022C0001F9018951092670310926B0310926C0308951F9378941092C100239A259A0E9499
:2022E000F5140E94D5100E94380E81500E94420F0E94610F80E00E94420F0E94700FE091AB
:202300006101F0916201309721F080E00995182F05C0E0916901F0916A0110810E94380E55
:20232000181780F0E0915F01F0916001309721F080E060E0099505C0E0916901F0916A01A9
:20234000108210E0812F0E94420F0E94F01A88E790E060E040E020E00E94A20F10929801DF
:20236000109299011092710180918100887F816080938100109280008BE0809381008EE66A
:2023800099E1909389008093880087EB9CE090938B0080938A0080916F00826080936F005F
:2023A0008091B100887F82608093B1008091B0008C7F81608093B0008091700081608093C9
:2023C00070000E94700F8091C0008D7F8093C0001092C50087E28093C4008091C10088605B
:2023E0008093C1008091C10080618093C1001F91089584B714BE809160008861809360005B
:20240000109260000E9469110E94861CFDCF1F93182FE0914701F0914801309709F00995B4
:202420008091530190915401892B19F4812F0E94060E1F910895CF92DF92FF920F931F9396
:20244000DF93CF930F92CDB7DEB76C01962F162F107F062F0F70103F09F4EFC0E091510176
:20246000F0915201309709F4E8C0802F698309959981882309F0E1C0D60114964C91E091B5
:202480005501F0915601309709F4DBC00894C11CD11C892FB60120E00995D3C0973F71F072
:2024A000F6014481E0915501F0915601309731F0B6016F5F7F4F892F21E00995103B09F4E7
:2024C00049C0113B40F4103909F1103AA1F1103809F0B7C010C0103D09F457C0113D20F409
:2024E000103C09F0AEC049C0103E09F45AC0103F09F0A7C06EC0D60111966C911197129613
:202500004C91E0913B01F0913C011FC0F60142816181442329F0E0913901F0913A0115C03C
:20252000E0913B01F0913C01309709F48AC0802F40E0099586C0D60111966C9111971296A4
:202540004C91E0913D01F0913E01309709F479C0802FEFCFF601F1801281802F6F2D412F0F
:202560000E943A0EE0914101F0914201309709F468C0802F6F2D412FDCCFD60111966C912D
:20258000E0914301F091440106C0F6016181E0913F01F0914001309709F453C0802F09958A
:2025A00050C0D60112966C91129711964C91E0914501F0914601309709F443C070E07695C1
:2025C000762F662777956795640F711D802F099538C00830B9F0093018F4002351F031C000
:2025E0000A30C9F00A3068F10B30D1F00C3049F51CC0F6011181812F0E940712812F0E94BD
:20260000A8161FC0E0914901F0914A013097C9F081E0099516C0E0914B01F0914C0109C0ED
:20262000E0914D01F0914E0104C0E0914F01F0915001309731F0099504C0903F09F02ECFA5
:202640003DCF0F90CF91DF911F910F91FF90DF90CF9008951F93CF93DF93EC01162FE0918C
:202660005301F0915401309711F0862F0995183F28F0CE01612F0E941B1251C017FF3AC057
:202680001C8281E08D83812F807F803AA1F0813A28F4803881F08039A1F40DC0803E59F00F
:2026A000803F19F0803B69F406C0912F9F70892F8150823018F482E08D8303C0943008F06D
:2026C0001D82173F59F48881803F31F487EF0E94071287EF0E94A816188213C0103F41F4D3
:2026E000188380EF0E94071280EF0E94A81609C0188307C08C81FE01E80FF11D11838F5F88
:202700008C839C818D81981750F0CE0168810E941B121C828881813F10F01D821882DF91F9
:20272000CF911F91089578941F920F920FB60F9211242F933F934F935F936F937F938F9355
:202740009F93AF93BF93EF93FF938091C00087FF0DC06091C6006E3F21F480914E068823F2
:2027600029F42D9A87E693E00E942A1380916F0190917001891B8F77E1F08091C00085FFD3
:2027800018C02B9A80917001E82FF0E0EA50F94F90818F5F8F77809370019093C60009C076
:2027A00080916D03815080936D03309731F080E00995E0914901F0914A0180916D038823AB
:2027C00079F780916E038F5F837080936E0380FD2EC00E940B1880916E0390E0837090708D
:2027E000892B29F590913401892F8A59809334018D37D8F09751909334018091300190919F
:202800003101019690933101809330018091300190913101892B49F4809132019091330137
:20282000019690933301809332012B982D98FF91EF91BF91AF919F918F917F916F915F91EC
:202840004F913F912F910F900FBE0F901F901895382F4091A30320E012C0842F90E0DC01F1
:20286000AA0FBB1FA80FB91FA059BC4F8C91831719F4222339F418C0242F12964C914423E5
:2028800061F70895822F90E0FC01EE0FFF1FE80FF91FE059FC4F12968C91828330916F037A
:2028A000E4EAF3E090E019C012968C918093A303F5CF8191841781F4292F05C0EC55FC4F21
:2028C000818180832F5FE22FF0E0832F90E00197E817F9079CF303C09F5F931750F3842FDB
:2028E00090E0FC01EE0FFF1FE80FF91FE059FC4F12828FEF80831182315030936F030895C2
:202900000F931F93182F062F0E94281480916F038031C1F4E5E7F3E021E030E080818823C4
:2029200049F4F901EE0FFF1FE20FF31FE059FC4F808106C02F5F3F4F33962131310571F722
:202940000E942814E3E7F3E091E080818F3F09F4592F9F5F33969131C1F7852F90E0FC01D5
:20296000EE0FFF1FE80FF91FE059FC4F8091A3038283108301835093A30340916F0320E00A
:2029800030E022C0D901F901EC55FC4F808190E0FC01EE0FFF1FE80FF91FE059FC4F8081C8
:2029A0002F5F3F4F181780F4942F08C0E92FF0E0EC55FC4F82913196808391506917B0F378
:2029C000AC55BC4F5C930AC0622F2417D8F2552329F0E42FF0E0EC55FC4F50834F5F409348
:2029E0006F031F910F9108950895CF93DF9310926F03A3E7B3E080E3ED0119928A95E9F7DB
:202A000080E1E5EAF3E0EF0119928A95E9F71092A303FD0133978FEF8083339683E0E33A3F
:202A2000F807C9F7DF91CF910895282F6CE0822F0E94BD3C0895482FE82FF0E0262F3327D1
:202A400027FD309567FF08C088279927821B930BE817F9074CF007C08FE790E0821B930B92
:202A6000E817F9070CF4460F842F08950F931F93062F142F6C3008F00C50801B87FD845FF4
:202A80000E941515175FE12FF0E0EE0FFF1FEF5CF84F65917491292F30E0220F331F620F10
:202AA000731FFB01459154912CE0382F329FC0011124840F800F87FD8C501F910F91089524
:202AC00085EB93E06FEF70E040E450E00E94673C089510921A041092190482E080931D041A
:202AE00080911F048230B1F0833018F48130B9F405C0813141F0833791F40CC0809120044A
:202B000090E0029602C082E090E090931C0480931B04089510921C0410921B04089583E084
:202B200080931D040895A0E0B0E0E9E9F5E10C942A3DC62FD0E0209721F4C0E0D4E0C81B5D
:202B4000D90B7C0173C0CE01C132D10510F080E290E0D82EEFE8F4E194918091C00085FF4B
:202B6000FCCF9093C600319684E1E539F807A1F78091C00085FFFCCF81E08093C600809155
:202B8000C00085FFFCCFD092C600E092F503F092F6030D2D10E087EF93E0B701A8010E9403
:202BA0006E3C30E040E015C0EB50FC4F2081922F92959F708091C00085FFFCCF9093C6003F
:202BC0008091C00085FFFCCF320F2F702093C6004F5FE42FF0E08D2D90E001968E179F07DF
:202BE0001CF7932F92959F708091C00085FFFCCF9093C6008091C00085FFFCCF3F7030932F
:202C0000C6008091C00085FFFCCF87EF8093C600C01BD10BE00EF11E209741F08CED95E0F5
:202C2000E4EFF1E03197F1F70197D1F7209709F08ACFCDB7DEB7E7E00C94463DCF92DF9202
:202C4000EF92FF921F9384E492E00E947E3C182FE82EFF2496E0EE0CFF1C9A95E1F780E800
:202C600092E0E80EF91E85EFC82E83E0D82EC60160E873E040E250E00E946E3CC601B70183
:202C800040E250E00E94863CC60160EA73E040E250E00E946E3C80E290E0E80EF91EC601D6
:202CA000B70140E250E00E94863C80E0612F0E94C22D1F91FF90EF90DF90CF90089560910B
:202CC000F5037091F60380911F048230A9F0833020F4813009F03BC005C0813199F183375C
:202CE000B1F52DC04091200487EF93E050E00E94863C0E94610F089580E00E94420F0E942B
:202D0000700F60912004E0915F01F0916001309719F080E0099505C0E0916901F0916A0112
:202D200060830E94820F2CE088E190E00FB6F894A895809360000FBE20936000FFCF0E9447
:202D40001E160895CB01609120040E9493150895482F803F41F410921E0410921A04109249
:202D6000190410921D0480911D04813019F1813030F0823091F1833009F077C063C080916A
:202D8000190490911A04FC01E157FB4EE491E41709F054C0019690931A0480931904069737
:202DA00008F463C081E080931D0410921A041092190408958091190490911A04FC01E15E9A
:202DC000FB4F4083019690931A0480931904029709F04BC00E9469150895209119043091F5
:202DE0001A04B90176956795FB01EB50FC4F20FF11C04F708081482B408380911B0490913B
:202E00001C046817790750F480911E04840F80931E0404C0842F8295807F80832F5F3F4FA8
:202E200030931A042093190480911B0490911C040196880F991F28173907B8F083E08093ED
:202E40001D040895473F71F4E0911B04F0911C04EB50FC4F90911E048081981719F40E9470
:202E60005F16089585E080931D040895E0915F01F0916001309711F009950895E091690179
:202E8000F0916A01E80FF11D60830895E0916101F0916201309711F009950895E09169012C
:202EA000F0916A01E80FF11D808108950F931F93CF93DF939091E104E92FF0E0A1E2B4E056
:202EC000EE0FFF1FEE0FFF1F8D010E0F1F1FE80188836983AE0FBF1F12964C932B839F5F25
:202EE0009093E1048091E2048F5F8093E204DF91CF911F910F9108953091E104E32FF0E0A7
:202F000041E254E0EE0FFF1FEE0FFF1FDA01AE0FBF1F85E58C9382E511968C931197E40F5D
:202F2000F51F128282E013968C933F5F6091E204E32FF0E0EE0FFF1FEE0FFF1FDA01AE0F9A
:202F4000BF1F8DE38C9311961C921197E40FF51F88E2828380EF13968C933F5FE32FF0E0DA
:202F6000EE0FFF1FEE0FFF1FDA01AE0FBF1F8EE38C9381E411968C931197E40FF51F1282A7
:202F800085E013968C933F5F832F90E0880F991F880F991FFA01E80FF91F2FE32083118254
:202FA000480F591FDA0112961C928FE783833F5F3093E1046C5F6093E2040895EF92FF92FC
:202FC0000F93CF93DF939091E104E92FF0E0A1E2B4E0EE0FFF1FEE0FFF1F7D01EE0EFF1EA9
:202FE000E70188836983AE0FBF1F12964C932B839F5F9093E1048091E204800F8093E2049D
:203000008091E4048F5F8093E404DF91CF910F91FF90EF900895CF93DF9383B190E0969510
:20302000879596958795817020917607220F282B2093760783B190E096958795817090915D
:203040001C08990F982B90931C08203829F4892F807F11F491E007C0903821F4207F11F4B0
:203060009FEF01C090E083B1817030911A08330F382B30931A08992391F021E0222F2295B9
:20308000207F8091F204E82FF0E0EE0FFF1FEF5BF74F208391838F5F8F718093F204189999
:2030A00014C0CCC022E0222F2295207F9091F204E92FF0E0EE0FFF1FEF5BF74F20838FEF3C
:2030C00081839F5F9F719093F2043F37F1F48091EF049091F0048152934098F422E0222FCC
:2030E0002295207F9091F204E92FF0E0EE0FFF1FEF5BF74F208381E081839F5F9F71909397
:20310000F2041092F0041092EF048091EE04882309F466C05091810840914008A42FB0E0D7
:20312000FD01EE0FFF1FE958F84F20813181CD0163E0880F991F6A95E1F7850FC82FD0E029
:20314000FE01E952F84FE08180917A0086FDFCCF83C010924008852F8F5F80938108883091
:2031600011F41092810820914008822F877090910001892B80937C0080917A008064809397
:203180007A00222311F437E002C0322F3150832F90E0FC01EE0FFF1FE958F84F408151815B
:2031A000E4E056954795EA95E1F7FC01EB51FB4F80818417A9F0408320E0222F2295207F0B
:2031C0003F70232B8091F204E82FF0E0EE0FFF1FEF5BF74F208341838F5F8F718093F204FB
:2031E000809125088F5F809325088091D607882329F05B985A981092D60745C08091F4043F
:203200009091F304891B8F7309F43DC081E08093D6078091F304E82FF0E0E957F84FE081CE
:203220008F5F8F738093F304E4FD5A9A8BB1E295E07F8F70E82BEBB95B9A25C08091EF0419
:203240009091F00401969093F0048093EF048152934008F027CF39CF80917900C952D84F3D
:203260008883AA0FBB1FA958B84F280F311D2E1B31092D933C93842F8F5F8093400888305D
:2032800009F071CF66CFDF91CF910895FC016F3F11F460E205C0693010F46F5C01C06850BB
:2032A00060830895FC01862F82958F708A3010F4805D01C0895A80836F706A3010F4605D4A
:2032C00001C0695A61830895CF93DF93EC01262F862F6CE00E94BD3C582F822F0E94BD3C64
:2032E000442319F42EEA34E102C025E934E1892F880FF901E80FF11DE491DE01ED938F5F38
:20330000280F311DF90184918983E52FF0E0E953FB4EE4911196EC93DF91CF91089538E084
:2033200020E0239FD0011124A95CB74FEAE9F1E002C08D9331968081882321F091E0E23A23
:20334000F907B9F708951F93CF93DF939C01162FEA016623C1F1009729F4FA0180E381936C
:2033600061502FC097FF06C08DE289931150309521953F4F40E0E42FF0E0E85DF74FC90104
:203380006AE070E00E94EA3C80834F5FC9016AE070E00E94EA3C9B016115710561F7642F7B
:2033A000DE0108C04150E42FF0E0E85DF74F8081805D8D934423B1F7FE01E60FF11D161B27
:2033C000612F61111082DF91CF911F9108951F93382F162F662361F1882329F4FA0180E3DD
:2033E0008193615023C020E0E22FF0E0EF5DF74F832F6AE00E94BD3C90832F5F832F0E9426
:20340000BD3C382F882381F7622FDA0108C02150E22FF0E0EF5DF74F8081805D8D932223CE
:20342000B1F7FA01E60FF11D161B612F611110821F9108951F93CF93DF93282F162FDA01D7
:20344000662399F1882329F4FA0180E3819361502AC087FF04C08DE28D931150219530E084
:20346000E32FF0E0E853F84F822F6AE00E94C93C90833F5F822F6AE00E94C93C282F8823F1
:2034800079F7632FED0108C03150E32FF0E0E853F84F8081805D89933323B1F7FD01E60FA4
:2034A000F11D161B612F61111082DF91CF911F910895982F84FD5A9A8BB19295907F8F706F
:2034C000892B8BB95B9A88E893E10197F1F75B985A9888E99AE30197F1F708951F93182FB2
:2034E00082958F700E94591A812F8F700E94591A1F910895282F8091F3049091F404815047
:20350000891B8F73823010F480E008959091F404E92FF0E0E957F84F822F82958F70806122
:2035200080832F70206121839E5F9F739093F40408951F938091CD072091CE073091CF0749
:203540004091D0076091D107E091D207A091D3071091D407B82FBF5F91E0B81708F090E07C
:20356000F92FF20F81E0F21708F080E0782F730F81E0731708F080E0582F540F81E054173E
:2035800008F080E0382F360F81E0361708F080E0282F2E0F81E02E1708F080E0982F9A0F1F
:2035A00081E09A1708F080E0810FB093CD07F093CE077093CF075093D0073093D1072093C1
:2035C000D2079093D3078093D4071F9108958AE991E060E270E048E050E00E94673C08952A
:2035E0000F931F9322982A9A8FEF809376072198299A80931C082098289A80931A08809178
:203600007A00876080937A0080917A00806880937A0080910001807C806280930001109216
:20362000400880937C0080917A00806480937A001092810880E4E7EDF7E0DF011D928A95CF
:20364000E9F780E1E7E7F7E0DF011D928A95E9F7529A539A8AB1806F8AB95A985B9888EE55
:2036600093E0E4EFF1E03197F1F70197D1F783E00E94591A00E117E2C8010197F1F783E025
:203680000E94591AC8010197F1F783E00E94591AC8010197F1F782E00E94591A80E20E9490
:2036A0006E1A8CE00E946E1A86E00E946E1A81E00E946E1A82E00E946E1A1092D60787E35C
:2036C00098E060E270E048E050E00E94673C8FE298E06FE370E048E050E00E94673C109279
:2036E000D50710922608109227088FEF8093180880931B08109219081092EE041092E10488
:203700001092E2041092E4041092E3041092ED041092F0041092EF041F910F9108959B01C7
:20372000E82FF0E0EE0FFF1FE758FF4F65917491C90150E00E944B3C08956AE971E048E073
:203740000E948F1B8AE991E068E00E94CA0D38E020E0239FD0011124A95CB74FEAE9F1E0E9
:2037600002C08D9331968081882321F091E0E23AF907B9F70895DF92EF92FF920F931F9332
:20378000D82EE62E142FF22E8AE991E060E270E048E050E00E94673C86E0D816B1F483E637
:2037A00080939A0188E680939B019FEFE91611F480E208C088E08E1518F08E2D8F5C02C007
:2037C0008E2D885080939C0106C08D2D6AE971E043E00E948F1B8AE991E063E00E94CA0D73
:2037E00080919C01803294F480919B01803271F48E2D90E0019662E04AE951E00E94A31957
:203800008AE991E062E040E30E949A0D123069F1133030F4112361F0113009F04AC01CC06E
:20382000143031F0143040F1153009F042C00DC08F2D63E04EE951E00E94E719FF2009F080
:203840003FC01430E9F58EE236C08F2D63E04EE951E00E941A1A34C08F2D90E0019663E0AA
:203860004EE951E00E94A3192BC08EE991E06F2D40E00E94641924C09BE09F1528F08EE932
:2038800091E06F2D40E007C087E18F1540F08EE991E06F2D41E00E94641980E207C08BE69A
:2038A00080939E0185E680939F0189E78093A00107C08F2D810F6EE971E043E00E948F1BEA
:2038C0008EE991E063E00E94CA0D002331F08BE580939D018DE58093A10138E020E0239FDE
:2038E000D0011124A95CB74FEAE9F1E002C08D9331968081882321F091E0E23AF907B9F770
:203900001F910F91FF90EF90DF900895EF92FF920F931F93CF93DF9310E0F1C00E94CE0DE5
:2039200060931D0870931E0880931F08909320088091E3042091E1049091E40401C0891BC5
:20394000821720F0222311F09923C9F7C82FD0E08091F104E82FF0E0EE0FFF1FEF5BF74FBD
:203960002081F1808F5F8F718093F104822F82958F70813009F080C0E0915701F0915801EB
:20398000309729F08F2D0995882309F0B7C08091ED04882309F44BC08E01000F111F000F40
:2039A000111F0F5D1B4FF8018181EF2CFF24E7FCF094CC0FDD1F8530E1F48091E3040E9466
:2039C0004617282F332727FD30952E0D3F1DCC0FDD1FCD5DDB4F8881682F772767FD709587
:2039E000F801838126173707ECF0992787FD909514C08091E3040E9446179701280F311D22
:203A0000CC0FDD1FCD5DDB4F8881682F70E0F80183812617370734F090E0B9018217930792
:203A20000CF4BC018091E3040E94361767C01091E3049091E3049F0D9093E3049F3F19F48A
:203A40001092E30407C08091E204981718F081508093E3048091E304E0916301F0916401EA
:203A6000309709F44BC00995813009F447C0823001F71093E30442C08230A1F5F1E0FF16C0
:203A800069F5E0915901F0915A01309719F009958823A1F5CC0FDD1FCC0FDD1FCF5DDB4F6E
:203AA0008981823369F41091E304812F0E94461760E0882309F461E0812F0E94361708C023
:203AC0008091ED0491E089278093ED048823B1F48091E30490E00E94510F10C080E00E9433
:203AE000420F0CC0882351F4E0915B01F0915C01309721F0822F8F706F2D099511E080914A
:203B0000F2049091F104891B8F7109F007CF0E94CE0D20911D0830911E08621B730B63335B
:203B2000710588F00E94CE0D60931D0870931E0880931F089093200880916D018E3029F4FA
:203B40000E94D03102C0112369F1E0915D01F0915E01309719F00995882321F58091E3049C
:203B60002091E1049091E404E82FFF2402C0E91BF394E21720F0222311F09923C1F7F0E08C
:203B8000EE0FFF1FEE0FFF1FEF5DFB4F108101810E944617282F812F6F2D402F0091ED04B3
:203BA0000E94BB1B8091F3049091F4048150891B8F73843008F494C0909125088091C707C4
:203BC000981738F4809119088F5F809319081092F506809125088093C7079091D5078091EC
:203BE0001B08981739F48091190881FF03C010912F0117C02091F506222371F0992311F09A
:203C0000973051F4E92FF0E0E95CF74F8081803219F4122F115005C0E92FF0E0E95CF74F8B
:203C20001081292F30E0F901E15DF74F80811817F1F18091180890E001962817390721F42F
:203C400080912708882339F520912608309127088091F3049091F4048150891B8F73823032
:203C6000D0F02295220F220F207C3068232B3091F404E32FF0E0E957F84F822F90E0A4E022
:203C800095958795AA95E1F780832F7021833E5F3F733093F404812F0E947A1A8091D507A4
:203CA000E82FF0E0E15DF74F108380931808909127089F5F909327088091D5078F5F809345
:203CC000D507983069F410922708809126088F5F80932608813021F4109226081092D50790
:203CE000CDB7DEB7E6E00C94473DA1E3B5E093E12C91281741F0E92FFF27E7FDF095E25E20
:203D0000FA4F20839150119725E0AD31B20781F711968C9308951F93382F20911D05E5EFF7
:203D2000F4E01FEF90E006C08081831709F4192F9F5F32969217C0F31F3F51F0E12FF0E0EA
:203D4000EE0FFF1FEB50FB4F1182812F0E94751E812F1F9108951F93382F20911D0522231D
:203D600011F41FEF41C0A5EFB4E0E0E005C08C911296831721F0EF5FE217C8F302C0EF3F20
:203D8000B1F4AEE1B5E09FEF1C91121740F4E12FF0E0EE0FFF1FEB50FB4F81818111192F66
:203DA000119685E0A233B80719F0912FEDCF1E2F1F3F71F4EEE1F5E08081821708F0812FE8
:203DC000319695E0E233F90711F0182FF5CF182FE12FF0E0EE0FFF1FEB50FB4F308381E0AB
:203DE0008183812F0E94751E812F1F910895089588E2E5EFF4E0DF011D928A95E9F7EEE1D1
:203E0000F5E083E181938150E8F708958091320580933305882319F481E080933305089574
:203E20001F9310913305180F10933305112311F481E00CC00E94380E212F30E090E003963E
:203E4000821793072CF40E94380E8D5F8093330581E01F9108951F930E94E71A1091330514
:203E60000E94380E181740F0109133050E94380E195E181BE12F07C0809133050E94420F7D
:203E800080916D01E82FF0E0EE0FFF1FE758FF4F659174918AE991E048E050E00E944B3CB4
:203EA00080E00E94420F8AE991E068E00E94840D0E948F1981E01F9108950F931F93109163
:203EC00033050E94380E181789F400E00DC0802F8068612F40E00E94E80E1F5F1038B9F714
:203EE0000F5F003109F43FC010E0F1CF0091330510E00E94380E90E001960817190731F46B
:203F000080E090E060E00E94931520C00091330510E00E94380E90E002960817190791F4FA
:203F200011E006C0812F0E94420F0E94910F1F5F0E94380E1817B0F380E00E94420F1092B8
:203F4000320504C080913305809332050E94820F2CE088E190E00FB6F894A89580936000BA
:203F60000FBE2093600081E01F910F9108950E94060E089580913505882319F081E080934D
:203F80003405089581E08093340581E090E090934505809344058091410581508093420582
:203FA00080913A05813011F081E001C08FEF809346058FE78093470510924A05089580918D
:203FC0003505882331F080913405882311F40E94C21F089580914605813029F410924705A9
:203FE00010924805089580916F0381508093480580913B0581508093470508951F936091C0
:2040000047056F3709F47AC010916F0370913A057330D9F52091010130910201C901817081
:204020009070909581959F4F8070947B36952795822793279093020180930101792F729584
:204040007F7080913B05482F50E0682F6195292F2F70322F260F832F992787FD90958417A9
:204060009507BCF730934705612F6195472F542F460F252F332727FD3095812F90E0281718
:204080003907ACF7509348053BC05091460540914805450F40934805242F332727FD3095BE
:2040A000812F90E0281739071CF01092480506C047FF26C01150109348051F5F462F450FDC
:2040C00040934705242F332727FD309580913B0590E02817390714F447FF12C0723071F4C4
:2040E0005195509346050E94EA1F123008F087CF80913B05823008F082CF02C00E94EA1FB8
:204100001F9108951F93142F90913905891761F4603451F480914905882321F0442311F4A9
:204120000E94F514109349051F9108950F931F93182F062FE82FF0E0EB5CFA4F60838430B8
:2041400050F48091360590E060E040913705209138050E94A20FE0913E05F0E0E859FF4FBE
:20416000E491E0934105153061F480913A05813011F081E001C08FEF809346050E94EA1FCC
:2041800008C01B3031F4002321F40E94F51410924A051F910F91089580913505882331F00F
:2041A00010923405809139050E94330F08950F931F93082F162F60E00E943D10882339F081
:2041C000809139058068602F40E00E94E80E809139051F778069602F412F0E94E80EE0918B
:2041E0003F05F0E0E859FF4FE491E150802F60E04E2F20E00E943F0F1F910F9108951F937B
:20420000809142058F5F8093420580916F03882311F010924305809143058F5F8093430543
:20422000803680F080E68093430580913505882349F4109234058CEF0E94060E8091390509
:204240000E94330F809139050E94FF0E9091420580914105981708F492C0109242058091C6
:204260003C05E82FF0E0EE0FFF1FE15AFD4F85919491209144053091450582239323892B25
:2042800011F490E001C09FEF80916F03882309F458C0992309F455C080913A05853011F43F
:2042A00010E04BC00E94FE1F90914805E92FF0E0EC55FC4FE08180913A058430A9F4E091EF
:2042C000A30320916F032150291B30E00BC08E2F90E0FC01EE0FFF1FE80FF91FE059FC4FAD
:2042E000E2813F5F321798F383E0E89FF0011124E059FC4F30816181809147052CE08202D5
:20430000C0011124380F01C03C5037FDFDCF832F0E94D72016C0E12FF0E0EC55FC4F808185
:2043200090E0FC01EE0FFF1FE80FF91FE059FC4F808161810E94D7201F5F80916F031817B6
:2043400050F32091440530914505220F331F309345052093440581E090E000903D0502C024
:20436000880F991F0A94E2F72817390711F0232B31F481E090E090934505809344051F913A
:20438000089590913505981759F480913405882339F0992319F488EF0E94060E0E94FF2054
:2043A00008950F931F93082F162F80913505823039F480E0602F412F0E94840E882311F522
:2043C000809139050817F1F4809149058823D1F414C0812F0E94281415C08091A30390E05D
:2043E000FC01EE0FFF1FE80FF91FE059FC4F8081181741F410924A0505C0809140058823F6
:2044000061F7E7CF1F910F910895FF920F931F93182F062FF42E80913505823039F481E093
:20442000612F402F0E94840E8823F1F5809139051817D1F534C0809143058036E0F01092FF
:20444000720110927301109274011092750181E080937101109298011092990180917601BF
:204460009091770190939701809396010E94C21F8AEF0E94060E10924305809140058823A1
:2044800049F080914A05882329F40E94F51481E080934A05802F6F2D0E94801405C08091F6
:2044A0003505813041F6E9CF1F910F91FF900895282FFB0190913905892F8068281771F0B4
:2044C000892F8069281751F0906B291719F48081803421F0822FBF010E94CB0E08950E9482
:2044E0007C178AE261E040E02FE00E9456178DE66EE640E025E00E94561784E760E041E077
:2045000024E00E9456178FE461E040E025E10E94561780E560E041E020E10E94561787E75B
:2045200064E840E020E10E94561785E764E840E020E10E94561786E762E340E021E00E94A2
:2045400056178091360590E060E040913705209138050E94A20F89E060913E050E949620AF
:204560001092720110927301109274011092750181E0809371011092980110929901809173
:20458000760190917701909397018093960180E680934305109234051092490510924A0529
:2045A00008958823B1F480914B05482F50E080914F05282F30E060915005421753073CF015
:2045C000862F90E09C01421753070CF49A01822F0895E82FF0E0E55BFA4F80810895A0913E
:2045E0004B05E82FF0E0E55BFA4F608370914D057723A9F480914F0587FF03C08FE7809357
:204600004F058091500587FF03C08FE78093500580914E0587FF03C08FE780934E0580911F
:204620004B05482F50E080914F05282F30E060915005421753073CF0862F90E09C01421777
:2046400053070CF49A01922F20934B052A1799F140914E0580914C05772341F44F779F77A5
:20466000806B642F492F0E94E80E0895441F4427441F806B63E60E94E80E80914C054091DF
:204680004E054F77806B62E60E94E80E90914C05906B40E080914B0587FD41E0892F66E0A5
:2046A0000E94E80E80914C0540914B054F77806B66E20E94E80E08950E94CB0E089587E42E
:2046C00060E040E02FE70E9456178AE261E040E02FE00E94561789E46AE440E021E00E94EC
:2046E000561788E460E040E02FEF0E9456178CE460E040E02FEF0E9456178DE460E040E086
:204700002FEF0E9456170895DF92EF92FF920F931F93D82E062FF42EE22E80915205882378
:2047200011F010E025C0862F8D29642F422F0E94E80E22C06F2D70E080915305681B710968
:20474000E12FF0E0ED5AFA4F8081680F711D02C0645F7F4F77FDFCCF02C06C50704060388B
:204760007105DCF7802F8D294E2D0E94E80E1F5F809152051817F0F21F910F91FF90EF9023
:20478000DF900895582F762FE42F20915105222331F030E090E001962817390721F48091A5
:2047A000ED04882339F0852F806A672F4E2F0E94E80E089580EA652F472F2E2F0E94842334
:2047C0000895582F762FE42F20915105222331F030E090E001962817390721F48091ED04E3
:2047E000882339F0852F8068672F4E2F0E94E80E089580E8652F472F2E2F0E94842308954C
:20480000582F762FA42F20915105222331F030E090E0019628173907D9F48091ED0488231C
:20482000F1F080915205E82FF0E0ED5AFA4F70838F5F809352058A3059F4E4E5F5E08181C6
:20484000819385E0EC35F807D1F789E080935205852F8069672F4A2F0E94E80E089580E9DA
:20486000652F472F2A2F0E94842308958091ED04882319F41092520502C00E94820F80E0E7
:204880000895982F907F903831F0903921F0903A11F00E94CB0E08958AE264E040E020E12E
:2048A0000E9456170895883F11F580916005882359F0815080936005882331F48AEF0E94E1
:2048C000060E81E08093610580916105882349F180915F058F5F80935F0590915D05891791
:2048E00000F188EF0E94060E10925F0508958A3F91F480915D05815080935F0580915E057A
:2049000080936005882369F48AEF0E94060E81E08093610508958C3F11F4109261050E94F7
:20492000060E089587E760E041E020E20E94561781E160E040E020E60E94561710925F0509
:2049400010926005109261050895843009F481E0E82FF0E0EE59FA4F808108951092660577
:2049600080E008951F93809162058823E1F41092720110927301109274011092750111E045
:20498000109371011092980110929901809176019091770190939701809396018AEF0E94EA
:2049A000060E109362051F9108950E94B22408950E94B224089580916205882339F0109274
:2049C00071018CEF0E94060E1092620508950E94DB240895882319F488EF0E94060E0895CE
:2049E000282F873F19F090E0803F09F491E0822F807F803F11F4992319F0822F0E94060E54
:204A000008950F931F93182F062F882341F4613019F40E94B22406C00E94DB2403C0843055
:204A200009F411E0E12FF0E0EE59FA4F00838091630590E060E040916405209165050E9475
:204A4000A20F1F910F910895EF92FF920F931F938091E304843011F080E05DC02091720104
:204A60003091730140917401509175011092720110927301109274011092750160916605AE
:204A80006623C9F120388AE1380786E0480780E0580788F5E0906705F09068050091690518
:204AA00010916A05E20EF31E041F151FE0926705F09268050093690510936A0570E080E0FE
:204AC00090E020E33AE14EE151E00E949E3CA80197010E94FD3C283231051CF428E230E096
:204AE00005C0213F310514F020EF30E081E0622F0E9401250AC010926605109267051092F7
:204B000068051092690510926A05809166058F5F8093660581E01F910F91FF90EF900895C3
:204B20008CE362E340E021E00E9456178DE360E048E220EF0E9456178EE361E440E025E0BE
:204B40000E9456178FE360E040E02FE70E94561780E460E048E220EF0E94561780916305EA
:204B600090E060E040916405209165050E94A20F109262051092660508951F93142FB82F4E
:204B8000B07FB03F79F1F82FFF70E0916B05FE1710F4A0E00DC0A0E08F2F90E040916C05C0
:204BA0002E2F30E0240F311D821793070CF4A1E04F2F50E0405F5F4F2E2F30E04217530738
:204BC00014F490E009C090E080916C05280F311D421753070CF491E09A2B11F0F0916D0540
:204BE0008F2F8B2B412F0E94CB0E1F9108958EE561E040E02FE00E94561788E460E041E04A
:204C000020E10E9456178FE561E040E02FE00E945617089580916F05882319F081E0809347
:204C20006E05089580916F05882319F081E080936E05089580916F05882311F010926E0561
:204C400008950F931F93182F062FE82FF0E0E159FA4F6083843088F48091700590E060E034
:204C600040917105209172050E94A20F112329F4002319F48CEF0E94060EE0917605F0E004
:204C8000E754F94EE491E09379051F910F910895DF92EF92FF920F931F93A82FD62EF42E6B
:204CA000442309F455C050917505541B57FD50E0E0917405F0E0E859FF4FE4910E2F10E042
:204CC00060917805762F770F40E00CC099277102C001700300249009810D901D1124080FA4
:204CE000191F4F5F242F30E0852F992787FD90952817390714F4662349F7209179053D2D65
:204D0000329FE12C11248A2F609177050E941B15101611061CF001E010E006C00F3F110544
:204D200019F014F00FEF10E06D2DD11061E09E2DE61608F4962FFA94692F402F2F2D0E94A1
:204D40003F0F8091A301823518F082E28093F5061F910F91FF90EF90DF900895CF93DF93E1
:204D6000E091660333C0CE2FD0E0FE01EE0FFF1FEE0FFF1FEC0FFD1FEC55FE4F8281882331
:204D800039F560816E3FC1F0418180917305442311F4806801C080690E94E80EFE01EE0FC9
:204DA000FF1FEE0FFF1FEC0FFD1FEC55FE4F8081618144810E944826FE01EE0FFF1FEE0F46
:204DC000FF1FEC0FFD1FEC55FE4FE381EE2359F60E940610DF91CF91089590916F059817E3
:204DE00071F480916E05882319F4992319F00895992319F488EF0E94060E0E94AE260895A7
:204E00000F931F93182F062F80916F05823039F480E0612F402F0E94840E882351F48091CA
:204E20007305181731F4802F60E0409175050E9448261F910F910895FF920F931F93182F43
:204E4000062FF42E80916F05823039F481E0612F402F0E94840E882351F48091730518175B
:204E600031F4802F6F2D409175050E9448261F910F91FF9008950F931F93CF93DF93182F7C
:204E8000EB01042F90917305892F8068181719F09069191761F480916F05823041F4612F08
:204EA0006F7080E048810E94840E882329F4812FBE01402F0E94CB0EDF91CF911F910F9175
:204EC00008950E947C178AE261E040E02FE00E94561781E164E840E02CE00E94561785E9BE
:204EE00060E040E020E20E94561785E661E040E02FE00E94561786E965E048EE28E10E94C2
:204F0000561787E965E041EC2FE30E9456178091700590E060E040917105209172050E94DA
:204F2000A20F85E0609174050E9421261092720110927301109274011092750181E080933A
:204F4000710110929801109299018091760190917701909397018093960110926E05089530
:204F6000282F80917E05882319F481E080937E0580917E0590E002C09F5F281B2817E0F77A
:204F800080917C05980F892F8F700895CF93DF939C01EC01DC01E0E08C91861729F0EF5F68
:204FA0001296E032C9F703C0EF3F51F408C0E0E088818F3F29F0EF5F2296E032C9F7E0E031
:204FC000F0E0EE0FFF1FE20FF31F60834183DF91CF910895EF92FF920F931F93CF93DF9395
:204FE000082F142FE22EE5EBF3E0C0E0D0E0F080F11651F4FE01EE0FFF1FEB54FC4F8181D2
:205000008F3FC1F410E011C021963296C032D10571F71FC0812F0E94B027802B6F2D4E2DD3
:205020000E94E80E80917E05180F80917D05181788F307C00E94B027802B612F4E2D0E9448
:20504000E80E003831F4CC0FDD1FCB54DC4F8FEF8883CDB7DEB7E6E00C94473D982F362F24
:20506000242F80917A05981729F480EA692F432F0E94EA270895FF920F931F93182F062F5C
:20508000F42E80917A05181749F4862F0E948B1E80E8612F402F2F2D0E94EA271F910F912C
:2050A000FF900895FF920F931F93082F162FF42E80917A05081709F05DC080917B05823039
:2050C00039F1833030F4882351F0813009F04CC017C08330D1F1843009F046C03AC0809123
:2050E0007F058F5F80937F0590917D05891710F010927F0585EB93E0612F40917F0532C084
:2051000080917D0580931D05862F0E94AB1E1BC02091010130910201C90181709070909575
:2051200081959F4F8070947B3695279582279327909302018093010160917D05892F90E0AC
:2051400070E00E94D63C482F0AC085EB93E04FEF09C0440F20917D05429F412D112485EBA6
:2051600093E0612F0E94C62780E9602F412F2F2D0E94EA271F910F91FF900895FF920F9377
:205180001F93CF93DF93282FEB01F42E082F007F003F31F0982F9F7080917A05981731F0D8
:2051A000822FBE014F2D0E94CB0E17C00038A9F0003999F0003A89F010E00BC0812F0E945E
:2051C000B027802BBE014F2D0E94CB0E80917E05180F80917D05181788F3CDB7DEB7E5E0C1
:2051E0000C94483D10921D050E94F81E8EE561E040E02FE00E9456178EE468E640E024E038
:205200000E9456178FE561E040E02FE00E94561788E460E041E020E10E94561789E660E000
:2052200041E028E00E94561710927F05089580918205882319F081E0809380050895809180
:205240008205882389F080918005882369F481E0809380051092A90581E090E09093AB0518
:205260008093AA0510928B050895E82FF0E0EF57FA4F6083853050F48091830590E060E002
:2052800040918405209185050E94A20F08950F931F93CF93DF93CDE8D5E007E815E088810A
:2052A000882349F0809186058068F801608140E00E94E80E188221960F5F1F4FF5E0C139F8
:2052C000DF0769F7DF91CF911F910F91089580918205882311F0109280050E9447290895B1
:2052E000EF92FF920F931F93082F10E08091860597E8E92E95E0F92EE00EF11E8069F70175
:20530000608144E60E94E80E03571A4FF7018081F80180831F910F91FF90EF900895A0E0B7
:20532000B0E0E5E9F9E20C94293D80918005882309F4BEC080918B058F5F80938B0580912F
:205340008C058F5F80938C05803670F080E680938C0580918205882339F4109280050E94D1
:2053600047298CEF0E94060E80918B05863009F09BC010928B0580918105882309F03FC075
:2053800010E0C0E0D0E04C2FFE01EB55FA4FE081EE2311F010928C05E10FF0E0EE0FFF1F49
:2053A000E557FD4F859194912091AA053091AB0582239323892B19F0842F0E94702921969C
:2053C000143211F0145FDFCF2091A9052F5F2093A9058091AA059091AB05880F991F909314
:2053E000AB058093AA05203109F062C01092A90581E090E09093AB058093AA0559C069E9AE
:20540000E62E65E0F62ECDE9D5E055E9C52E55E0D52E00E010E0F801EF56FA4FE081EE2372
:20542000C9F010928C05D6018C912CE0829FC0011124E80FF0E0EE0FFF1FE555FC4F8591EC
:2054400094912881398182239323892B19F0802F0E947029F70120812F5F208388819981D5
:20546000880F991F99838883D601EC91F0E0E85BF84EE49130E08E2F90E02817390731F4B3
:20548000F701108281E090E0998388830F5F1F4F0894E11CF11C22960894C11CD11C0430B6
:2054A000110509F0B8CF04C0833011F40E944729CDB7DEB7E8E00C94453D9091820598176E
:2054C00059F480918005882339F0992319F488EF0E94060E0E948F2908950F931F93182F8D
:2054E000062F80918205823039F480E0612F402F0E94840E882339F480918605181719F4BD
:20550000802F0E9428141F910F910895FF920F931F93182F062FF42E80918205823041F40F
:2055200081E0612F402F0E94840E882309F0A3C080918605181709F09EC097C080918C05B5
:20554000803630F11092720110927301109274011092750181E08093710110929801109257
:205560009901209176013091770130939701209396011092A90521E030E03093AB05209304
:20558000AA0510928B05809380058AEF0E94060E10928C05802F6F2D0E9480148091810518
:2055A000882319F00FEF10E05BC010E01FC0E12FF0E0EC55FC4F808190E0FC01EE0FFF1F6A
:2055C000E80FF91FE059FC4F80810E941515873010F083E005C0843010F480E001C08350E0
:2055E000E82FF0E0EB55FA4F90831F5F80916F031817E8F240C0E12FF0E0EC55FC4F8081B1
:2056000090E0FC01EE0FFF1FE80FF91FE059FC4F80810E941515282F873010F0E3E006C00B
:20562000843010F4E0E002C0E82FE350AE2FB0E0201721F4AB56BA4F9C9310C0FD01EF56E1
:20564000FA4F9083FD01E756FA4F1082AA0FBB1FA356BA4F81E090E08D939C931F5F022F74
:2056600080916F03181738F206C080918205882309F464CF8FCF1F910F91FF900895282FE4
:2056800090918605892F8068281731F09069291719F0822F0E94CB0E08951F938EE46FE4DC
:2056A00040E021E00E9456170E947C178AE261E040E02FE00E94561716E5812F62E044E188
:2056C0002CE60E9456171F5F1A35B9F78091830590E060E040918405209185050E94A20FFB
:2056E0001092720110927301109274011092750181E08093710110929801109299018091E2
:2057000076019091770190939701809396011092A5051092A6051092A7051092A80520E0DE
:2057200030E0F901EF56FA4F1082F901EB56FA4F8BE080832F5F3F4F2430310591F780E6B9
:2057400080938C05109280051F910895982F807F803F21F4892F0E94CB0E0895E92FF0E0DF
:20576000EF70F070E455FA4F8081882319F0892F0E94CB0E0895FF920F931F9384E00E9478
:20578000591A88E00E94591AFF2412C00F2D10E00958184FF8010491802F82958F708061FC
:2057A0000E94591A0F70802F80610E94591AF394F8E3FF1659F786E062E340E021E000E13C
:2057C0000E94DE171F910F91FF900895CF93DF93EC01722FE62FF0E0CF01807F9070803FE1
:2057E000910581F494E0F595E7959A95E1F7389781E090E002C0880F991FEA95E2F72A8169
:20580000282341C06F70A1E0B0E0CD0102C0880F991F6A95E2F72881398182239323892B23
:2058200081F184E0F595E7958A95E1F7389702C0AA0FBB1FEA95E2F78A818A2311F150E02F
:205840008B81992787FD909548175907D4F08C81992787FD9095841795079CF0472F50E071
:205860008D81992787FD90954817590754F030E08E81992787FD9095841795071CF031E0D2
:2058800001C030E0232F822FDF91CF9108952F923F925F926F927F928F929F92AF92BF924E
:2058A000CF92DF92EF92FF920F931F93DF93CF9300D0CDB7DEB7982E5B01542EA3EC6A2E28
:2058C000A5E07A2E7301DD24CC2400E010E015010894211C311CC801F4E0880F991FFA95AF
:2058E000E1F784549A4F692DF501408121810E94E62B8823A1F0DD2011F091E005C0F70105
:205900009081991F9927991FCC2011F081E006C0F701808182958695869581706C010F5F20
:205920001F4F20E130E0E20EF31E0430110579F6DD2009F013C1CC2029F0892DB501452D81
:205940000E94CB0ECC24DD24C601E4E0880F991FEA95E1F784549A4F692DF5014081F101AA
:2059600020810E94E62B882309F4E7C0F301808184FF02C0982F02C0992D980F9F7085FFC1
:2059800006C070EB972E992A62E0562E03C0F0EF9F22992AD60154E0AA0FBB1F5A95E1F70D
:2059A000AA53BA4F7E010894E11CF11C00E010E012967C91129711966C9111978C9085FCA5
:2059C00002C0F80104C0E1E0F0E0E01BF10BEA0DFB1DE0814E2F50E0882D90E08F7090707F
:2059E0008430910561F18530910554F482309105C1F083309105E4F4019709F077C00AC0CC
:205A00008630910509F186309105B4F1079709F06DC04CC0862F992787FD9095480F591F92
:205A200065C0862F992787FD9095481B590B5EC08FE790E09C01241B350BA90157C0462F06
:205A4000552747FD509552C02091010130910201C90181709070909581959F4F8070947B35
:205A600036952795822793279093020180930101492F50E04F775070242F220F67175CF481
:205A8000761B279F812D1124462F552747FD5095480F511D2BC0671B269F812D1124472F62
:205AA000552747FD5095481B510920C080910101909102019C0121703070309521953F4F96
:205AC0002070347B96958795282739273093020120930101761B379F212D1124862F9927B7
:205AE00087FD9095480F591F420F511D87FE04C0EE2311F440E050E086FE03C0842F8F77C0
:205B00000AC0CA014038510514F08FE790E097FF02C080E090E0F70180830F5F1F4F139690
:205B20000894E11CF11C0230110509F041CF8981F50180838A81F10180830894C11CD11C05
:205B400020E130E0620E731E34E0C316D10409F0FBCE892DB501452D0E94CB0E0F900F9018
:205B6000CF91DF911F910F91FF90EF90DF90CF90BF90AF909F908F907F906F905F903F9081
:205B80002F9008956093FC0570E0B6E0660F771FBA95E1F760587D4F8CEB95E040E450E0D9
:205BA0000E946E3C089582EF61E040E023E00E94561780E06091FC050E94C22D0895982FD1
:205BC0008091FE059817D0F08091FF058917B0F08091FD058230B1F421E030E002C0220F7F
:205BE000331F9A95E2F78091050690910606822B932B90930606809305060895892F80680D
:205C00000E94E80E0895EF92FF920F931F93CF93DF937C0100E010E0C0910706D0910806FB
:205C2000C00FD11F68816F3FB9F029812F3FA1F081E090E0022E02C0880F991F0A94E2F733
:205C40008E219F21892B41F0822F806840E00E94E80E8FEF898388830E5F1F4F00341105E5
:205C6000D9F6CDB7DEB7E6E00C94473D0F931F93182F062F882341F48091FD05681721F0FF
:205C80008FEF9FEF0E94032EE12FF0E0E350FA4F0083133000F57091FE056091FF0540E0F5
:205CA00050E020E030E0271758F0621748F02F5F3F4F20313105B9F7CA010E94032E0BC0B1
:205CC00081E090E0022E02C0880F991F0A94E2F7482B592BECCF1F910F910895EF92FF928A
:205CE0000F931F93CF93DF93182FF62EE42E8091FE05181708F4ADC08091FF05811708F4AA
:205D0000A8C0442309F4ABC080910106681710F420E006C020E080910206861708F021E03C
:205D200080910306E81610F490E006C090E0809104068E1508F091E0222349F0992339F017
:205D400090E080910006823018F091E001C090E0C1E0D0E0012E02C0CC0FDD1F0A94E2F7D0
:205D6000992351F080910006813011F4CFEFDFEFCE010E94032E73C08091050690910606AF
:205D80008C239D23892B19F0CE010E94032EC095D09580910506909106068C239D239093A0
:205DA0000606809305068091FD0520910706309108068823B9F1D9010FEFEFEF90E01196F7
:205DC0004C911197411721F48C918F1509F4092F4F3F21F48C918F3F09F4E92F9F5F129692
:205DE000903269F70F3FA1F0812F80686F2D40E00E94E80E802F90E0880F991FE0910706CA
:205E0000F0910806E80FF91F8FEF8183808327C0EF3F29F1F0E0EE0FFF1FE20FF31F1183AE
:205E2000F08217C0C12FD0E0CC0FDD1FC20FD31F68816F3F29F0812F806840E00E94E80EDF
:205E4000812F80696F2D4E2D0E94E80EF882198306C0812F80696F2D4E2D0E94E80ECDB752
:205E6000DEB7E6E00C94473D982F907F903821F0903911F00E94CB0E08958EE46BEE40E027
:205E800022E00E94561789E761E040E02FE00E9456178AE761E040E02FE00E94561782E5AB
:205EA0006FE740E022E00E9456178BE760E040E02FE70E9456178CE760E040E02FE70E94D9
:205EC00056178DE760E041E02FE70E9456178EE760E041E02FE70E94561785EB93E090935A
:205EE000080680930706FC018FEF80838183329683E0E53FF807C1F7109206061092050691
:205F0000089580910A06882319F081E0809309060895A0E0B0E0EFE8FFE20C942A3D80910F
:205F200038068F5F8093380690913906891708F484C010923806C0E1D6E008E216E050E35A
:205F4000E52E56E0F52E3B81F801408151813131F1F4F701808191814817590710F041E05B
:205F60002DC02091010130910201C90181709070909581959F4F8070947B369527958227AA
:205F800093279093020180930101D92E16C021E8329F900111242153384F56954795F901D3
:205FA000E50FF11D842FD5901590819DF00180958D9DE00DF11D1124DF2E40E0F80180817D
:205FC0009181F70120813181820F931FF801918380832981222329F1442319F530E0220F52
:205FE000331F4D2D40582402212D1124332727FD30958A81280F311D2038310514F02FE719
:2060000030E037FF02C020E030E0688180910F066F3718F0806E60E001C0806B422F0E94BE
:20602000E80E26960E5F1F4F82E090E0E80EF91E96E0C832D90709F086CFCDB7DEB7E7E076
:206040000C94463D809109068823B1F580910A068823D1F4109272011092730110927401D9
:206060001092750181E08093710110929801109299018091760190917701909397018093BC
:2060800096018AEF0E94060E8091390681508093380681E0809309061092290610922806A4
:2060A00010922B0610922A0610922D0610922C0610922F0610922E06089580910A0688237C
:2060C00011F00E942230089580910906882349F080910A06882319F48CEF0E94060E10927E
:2060E0000906089580910A06882311F00E946430089590910A06981759F48091090688235C
:2061000039F0992319F488EF0E94060E0E94892F08950F931F93182F062F80910A068230C6
:2061200039F480E0612F402F0E94840E882339F480910F06181719F4802F0E9428141F9128
:206140000F910895FF920F931F93182F062FF42E80910A06823039F481E0612F402F0E947D
:20616000840E8823F1F480910F061817D1F490916F03E5E1F6E0A8E2B6E08081813021F0D1
:20618000823029F4992319F411961C921E923696129686E0ED32F80781F7802F6F2D0E9405
:2061A00080141F910F91FF9008950F931F93CF93DF93182F062F882339F4613019F40E9413
:2061C000223002C00E946430E12FF0E0E75FF94F0083153050F480910B0690E060E0409158
:2061E0000C0620910D060E94A20FE0910E06F0E0E859FF4FE491E09339062E2F30E0A4E179
:20620000B6E0C0E3D6E08C91E82FF0E0EE0FFF1FE55FF84F85919491AC01429FC001439F79
:20622000900D529F900D112489939993169656E0AC32B50741F7DF91CF911F910F91089545
:206240000F931F93CF93DF93182FEB01042F90910F06892F8068181719F09069191761F424
:2062600080910A06823041F4612F6F7080E048810E94840E882329F4812FBE01402F0E9402
:20628000CB0EDF91CF911F910F9108951F938CE362E340E021E00E9456170E947C1787EE28
:2062A00064E840E020E10E9456178AE261E040E02FE00E9456171AE5812F60E040E02FE752
:2062C0000E945617812F895965E041EC2FE30E945617812F855960E040E02FE70E94561777
:2062E000812F815965ED40E021E10E945617812F8D5862E840E022E10E945617812F8958EF
:2063000068EE40E022E00E9456171F5F1E35A1F680910B0690E060E040910C0620910D0615
:206320000E94A20F82E060910B060E94D5301092720110927301109274011092750181E044
:2063400080937101109298011092990180917601909177019093970180939601109209060A
:206360001F910895982F8091ED04882311F040E00DC020913A06222341F040E0892F90E0BF
:20638000019630E08217930709F441E0842F089590E08091ED04882309F491E0892F0895D5
:2063A00080913B068C3348F48F5F80933B068C3321F40E94E71A0E948F1908950E94E71A4D
:2063C0000E948F1980E00895982F8091ED04882339F4913029F485EA80939B010E948F198F
:2063E00008950F931F93182F062F8091ED048823E1F40E94E71A8AE991E0612F0E94461996
:20640000E02FF0E0EE0FFF1FE758FF4F659174918CE991E046E050E00E944B3C8CE991E0AF
:2064200066E00E94CA0D0E948F191F910F9108951F93182F8E3F51F0883F41F010923B0684
:206440008F3F21F48FEF69E20E94F131812F0E94060E1F9108958FEF67E20E94F1310895F1
:206460008FEF68E20E94F13108958FEF66E20E94F1310895803F19F48FEF63E207C0873FB0
:2064800019F48FEF65E202C08FEF64E20E94F1310895DF92EF92FF920F931F93F82ED62E42
:2064A000E72E0E94E71A0AE911E0C8016F2D0E94461982E680939C01C80104966E2D0E9422
:2064C0005219C80106966D2D0E9452190E948F191F910F91FF90EF90DF900895EF92FF927F
:2064E0000F931F93F82EE62E0E94E71A0AE911E0C8016F2D0E94461980E780939C0187E69D
:2065000080939D018DE680939E01C80106966E2D0E9452190E948F191F910F91FF90EF90F0
:2065200008950F931F93282F162F042F683728F01D55612F0E94F13114C08AE991E0622FD5
:206540000E94461983E280939C018DE991E0612F0E94521980EA91E0602F0E9452190E9488
:206560008F191F910F910895EF92FF920F931F93F82EE62E0E94E71A0AE911E0C8016F2DFA
:206580000E94461981E680939C0186E680939D0184E780939E01C80106966E2D0E9452199C
:2065A0000E948F191F910F91FF90EF900895A1E0B0E0EDEDF2E30C942D3D182F6983042F66
:2065C0000E94E71A8AE991E0612F0E9446198CE991E0698140E00E9464190F3F31F48DE2B2
:2065E0008093A0018093A10105C080EA91E0602F0E9452190E948F192196E4E00C94493D0B
:2066000042954F70406A0E94D73208954FEF0E94D7320895FF920F931F9384E00E94591A0E
:2066200088E00E94591AFF2412C00F2D10E00958184FF8010491802F82958F7080610E941E
:20664000591A0F70802F80610E94591AF394F8E3FF1659F70E94E71A8AE264E040E020E168
:206660000E9456171F910F91FF9008952091010130910201C90181709070909581959F4F34
:206680008070947B36952795822793279093020180930101892F08951F93182F0E9436337D
:2066A00090E020913D0630E0220F331F8217930714F080E002C0812F880F1F9108951F9344
:2066C000CF93DF93182F522F20913C06222371F030E0862F90E001962817390739F0862F5C
:2066E000812B642F452F0E94E80E1EC0E5EBF3E020E030E08081841771F4E901CC0FDD1FFC
:20670000CB54DC4F862F812B6981452F0E94E80E103851F407C02F5F3F4F32962032310518
:2067200049F702C08FEF8883DF91CF911F910895982F362F242F80EA692F432F0E945F338A
:206740000895982F362F242F80E8692F432F0E945F330895A0E0B0E0E0EBF3E30C94293D23
:20676000D82E062FC42E20913C06222349F030E090E001962817390719F08D2D80697EC0FB
:20678000C0E4D6E0B2E4EB2EB6E0FB2E88818823E9F080913D068823C9F00E943633182F9A
:2067A00088810E944C331F772FE3422F582F159F90015095459F5095200D311D11248D2DB2
:2067C000806BF7016081432F0E94E80E21960894E11CF11CF6E0C234DF07C1F680913F06CF
:2067E000882399F00E943633182F80913F060E944C331F772C2D382F139FC0013095239F4C
:206800003095800D911D1124C92E80913E06882311F4602F12C00E943633182F80913E063F
:206820000E944C331F77482F149FC0014095049F4095800D911D1124692FC5EBD3E0DE011F
:20684000E0E08C91801729F0EF5F1296E032C9F703C0EF3F51F408C0E0E088818F3F29F035
:20686000EF5F2296E032C9F7E0E0F0E0EE0FFF1FEB54FC4F008361838D2D80694C2D0E94E6
:20688000E80ECDB7DEB7E8E00C94453D982F907F903831F0903921F0903A11F00E94CB0E20
:2068A00008958AE264E040E020E10E9456178FE360E040E02FE70E94561784E560E040E09B
:2068C0002FE70E94561785E660E040E02FE70E9456178AE560E040E02FE70E9456178BE53F
:2068E00060E040E02FE70E94561786E660E040E02FE70E94561787E660E040E02FE70E949D
:2069000056170895EF92FF920F931F93CF93DF93F82E862FE42E609147060E941B15082FFF
:2069200060914506683109F055C040E9F41631F560914A06409146060E943615982FC5EB59
